:020000040800F2
:10000000600400209D010008EB020008E7020008E0
:10001000E9020008E5010008BD0900080000000031
:100020000000000000000000000000009D03000828
:10003000E7010008000000006903000855040008FB
:10004000B7010008B7010008B7010008B7010008B0
:10005000B7010008B7010008B7010008B7010008A0
:10006000B7010008B7010008B7010008B701000890
:10007000B7010008B7010008B7010008B701000880
:10008000B7010008B7010008B7010008B701000870
:10009000B7010008B7010008B7010008B701000860
:1000A000B7010008B7010008B7010008B701000850
:1000B000B701000819050008B7010008B7010008DA
:1000C000B7010008B7010008B7010008B701000830
:1000D000B7010008B7010008B7010008B701000820
:1000E000B7010008B7010008B7010008B701000810
:1000F000B7010008B7010008B7010008B701000800
:10010000B7010008B7010008B7010008B7010008EF
:10011000B7010008B7010008B7010008B7010008DF
:10012000B7010008B7010008B7010008B7010008CF
:10013000B7010008B7010008B7010008B7010008BF
:10014000B7010008B7010008B7010008B7010008AF
:10015000B7010008B7010008B7010008B70100089F
:10016000B7010008B7010008B7010008B70100088F
:10017000B7010008B7010008B7010008B70100087F
:10018000B7010008B7010008DFF80CD000F018F83C
:1001900000480047DD090008600400200648804749
:1001A00006480047FEE7FEE7FEE7FEE7FEE7FEE75C
:1001B000FEE7FEE7FEE7FEE7C90400088901000844
:1001C000064C074D06E0E06840F0010394E80700A4
:1001D00098471034AC42F6D3FFF7DAFFF009000875
:1001E000100A0008FEE770477CB50121092000F0E5
:1001F000BDF801258DF8045003264FF470408DF8AA
:100200000560002400908DF806408DF8074069468F
:10021000084800F013F88DF804408DF805608DF85B
:10022000064000958DF807406946034800F006F83F
:100230007CBD0000000C024000000240F0B500232D
:10024000012403270D6804FA03F21540954242D1B8
:10025000D0F800C05E0007FA06F52CEA050CC0F8DD
:1002600000C091F804C0D0F800E00CFA06FC4CEA9B
:100270000E0CC0F800C091F804C0BCF1010F02D010
:10028000BCF1020F1FD1D0F808C02CEA050CC0F851
:1002900008C091F805C0D0F808E00CFA06FC4CEA5A
:1002A0000E0CC0F808C0D0F804C02CEA020CC0F84C
:1002B00004C0426891F806C00CFA03FC1FFA8CFCDB
:1002C00042EA0C024260C268AA43C260CA79C568A9
:1002D000B2402A43C2605B1C102BB3D3F0BD42690D
:1002E0004A4042617047FEE7FEE7704704481D211F
:1002F00001700021417001218170C17000F002B8CD
:100300003A00002070B50F21C478027801234FF025
:10031000E026E4B1124C246804F4E064C4F5E0641F
:10032000C4F30724C4F10405E1404478AC40857867
:100330000D4025430B4C29011155007800F01F0199
:100340008B40400906EB8000C0F8003170BD02F020
:100350001F008340500906EB8000C0F8803170BD5B
:100360000CED00E000E400E070470000044A0029C2
:10037000116801D0014300E0814311607047000023
:1003800030380240044A0029116801D0014300E0DE
:100390008143116070470000403802407047000000
:1003A0000CB500202749019000900A6842F4803281
:1003B0000A604FF4A0630A6802F400320092019AC6
:1003C000521C0192009A12B9019A9A42F3D10A681A
:1003D000920334D5012000901A484030026842F060
:1003E000805202601848026842F480420260154858
:1003F000083002680260026842F40042026002684B
:1004000042F4A0520260031F104A1A600A6842F0C8
:1004100080720A600A689201FCD50D4A40F20561BB
:100420001160016821F003010160016841F00201DF
:1004300001600168C1F381010229FAD10CBD00906D
:100440000CBD000000380240007000400854400716
:10045000003C02400E48D0E90212491C42F1000261
:10046000C0E90212D0E90412491C42F10002C0E9BD
:100470000412491E72F1000108D30021C0E90411E1
:100480000188491C01804188491C41807047000057
:10049000180000200A484FF47A710068B0FBF1F0B0
:1004A000401EB0F1807F0AD24FF0E0214861054A3A
:1004B000F020107000208861072008617047FEE777
:1004C0000400002023ED00E00F4810B5016841F062
:1004D000010101600C4A00210832116002680B4BD7
:1004E0001A400260031D0A4A1A60026822F4802240
:1004F000026005480C300160FFF752FF05494FF0DC
:100500000060086010BD000000380240FFFFF6FEEA
:100510001030002408ED00E02DE9F041334D0221B8
:10052000284600F0EFF8324F324CAE14A0B1022151
:10053000284600F069F831463846FFF7D0FE2846D5
:1005400000F0D8F82C4980B2208009880144284660
:10055000BDE8F04100F0EBB90421284600F0D2F8E4
:10056000A0B10421284600F04FF831463846FFF785
:10057000B6FE284600F0C0F8204980B220800988E5
:1005800001442846BDE8F04100F0D3B908212846CF
:1005900000F0B8F8A0B10821284600F035F831463F
:1005A0003846FFF79CFE284600F0A8F8144980B2B0
:1005B0002080098801442846BDE8F04100F0BBB91D
:1005C0001021284600F020F831463846FFF787FE14
:1005D000284600F095F80B4980B220800988014434
:1005E0002846BDE8F04100F0A8B900000004004032
:1005F000000C0240000000203000002032000020EB
:100600003400002036000020C943018270470029D1
:10061000018802D041F0010101E021F001010180D7
:10062000704700002DE9F04101210220FFF7AAFEEA
:100630002B482C492C4D00684FF6FF72B0FBF1F1AE
:100640002A48491E29814260018000260681DFF880
:10065000A08046800146404600F072F901222989B7
:10066000404600F061F9214C0C3401272680678058
:100670002888A060A6812146404600F057F8002156
:10068000404600F083F867806888A06021464046B5
:1006900000F082F80021404600F0BEF86780A8888C
:1006A000A0602146404600F0C1F80021404600F01D
:1006B000FBF86780E888A0602146404600F0FAF821
:1006C0000021404600F026F901221E21404600F09C
:1006D00025F84046BDE8F0410121FFF798BF000032
:1006E00004000020C0D401003000002040000020A1
:1006F00000040040406B7047806B7047C06B7047D0
:10070000006C704702460020138A92890B4202EA6D
:10071000010202D0002A00D001207047002A8289FD
:1007200001D00A4300E08A438281704730B5028CD1
:1007300022F001020284028C8388048B22F00202E0
:1007400024F073050C882C438D8915434A882A436D
:100750000C4DA84202D00C4DA8420DD122F0080544
:10076000CA8923F440732A4322F004058A882A4365
:100770000D8A1D434B8A2B43838004838968416320
:10078000028430BD0000014000040140028B22F0D1
:1007900008020A430283704770B5028C22F01002EF
:1007A0000284028C8488038B0D8823F4E6464FF67E
:1007B000FF7303EA052535438E8922F0200203EA00
:1007C000061616434A8803EA02123243104EB0421C
:1007D00002D0104EB04215D122F08006CA8924F40E
:1007E000406403EA0212324322F040068A8803EA98
:1007F000021232430E8A03EA860626434C8A03EA33
:10080000840434438480058389688163028470BDD5
:100810000000014000040140028B4FF6FF7322F4F8
:10082000006203EA012111430183704770B5028C15
:1008300022F480720284028C8488838B0D8823F0DA
:1008400073031D4322F400738E894FF6FF7202EA90
:1008500006261E434B8802EA03233343104EB04260
:1008600002D0104EB04215D123F40066CB8924F497
:10087000405402EA0323334323F480668B8802EA60
:10088000032333430E8A02EA061626434C8A02EA01
:1008900004143443848085838968C163038470BDF4
:1008A0000000014000040140828B22F008020A434C
:1008B0008283704770B5028C22F480520284048CCB
:1008C0008288838B0D8823F4E6464FF6FF7303EA94
:1008D0000525354324F400568C8903EA0434344357
:1008E0004E8803EA06362643084CA04202D0084C44
:1008F000A04205D122F480440A8A03EA82122243EC
:100900008280858389680164068470BD000001408F
:1009100000040140828B4FF6FF7322F4006203EA69
:1009200001211143818370470185828270474163B1
:10093000704781637047C16370470164704700006E
:1009400030B50288164B174C98420DD0A0420BD000
:10095000B0F1804F08D0144DA84205D0134DA842E5
:1009600002D0134DA84203D122F070054A882A43D1
:10097000104DA84206D0104DA84203D022F4407575
:100980000A892A4302804A68C2620A88028598421C
:1009900001D0A04201D1897A01860121818230BD36
:1009A0000000014000040140000400400008004035
:1009B000000C00400010004000140040FEE702E080
:1009C00008C8121F08C1002AFAD1704770470020DA
:1009D00001E001C1121F002AFBD17047FFF75AFD49
:1009E000FFF784FCFFF71EFEFFF7FEFBFEE70000AB
:1009F000100A00080000002040000000BE090008A6
:100A0000500A00084000002020040000CE09000821
:100A100000000000007A030A00000000000000004F
:100A2000010203040607080900000000000000009E
:100A300000000000000000000000000000000000B6
:100A400001A0AD6A5635AA1A00000000000000009F
:040000050800018965
:00000001FF
