:020000040800F2
:10000000080500209D010008971800086D0B0008E6
:10001000951800087D0800087D21000800000000F8
:10002000000000000000000000000000F1190008BE
:100030007F08000800000000FD180008B91B000838
:10004000C7010008C7010008C7010008C701000870
:10005000C7010008C7010008C7010008C701000860
:10006000C7010008C7010008C7010008C701000850
:10007000C7010008C7010008C7010008C701000840
:10008000C7010008C7010008C7010008C701000830
:10009000C7010008C7010008C7010008C701000820
:1000A000C7010008C7010008C7010008C701000810
:1000B000C7010008C7010008C7010008C701000800
:1000C000C7010008C7010008C7010008C7010008F0
:1000D000C7010008C7010008C7010008C7010008E0
:1000E000C7010008C7010008C7010008C7010008D0
:1000F000C7010008C7010008C7010008C7010008C0
:10010000C7010008C7010008C7010008C7010008AF
:10011000C7010008C7010008C7010008C70100089F
:10012000C7010008C7010008C7010008C70100088F
:10013000C7010008C7010008C7010008C70100087F
:10014000C7010008C7010008C7010008C70100086F
:10015000C7010008C7010008C7010008C70100085F
:10016000C7010008C7010008C7010008C70100084F
:10017000C7010008C7010008C7010008C70100083F
:10018000C7010008C7010008DFF80CD000F054FBDD
:1001900000480047DD340008080500200A48804771
:1001A0000A480B48016841F4700101600648804725
:1001B00006480047FEE7FEE7FEE7FEE7FEE7FEE74C
:1001C000FEE7FEE7FEE7FEE7DD1B00088901000809
:1001D00088ED00E02DE9FE4F804681EA0300C00F64
:1001E0000C46009021F0004123F00045B8EB0200DE
:1001F000A94105D24046214690461C460B46024680
:1002000023F00040104304D14046214603B0BDE82E
:10021000F08F270DC7F30A00C3F30A510290401A6A
:100220000190402866DAC3F3130040F4801B009865
:10023000924620B10023D2EB030A63EB0B0B01982B
:100240005946C0F14002504600F0C2F906460D463C
:1002500050465946019A00F0CAF910EB0800614176
:10026000002487EA115284EAE7731A433BD0009ACC
:100270003AB3019A012A4FEA075210DC001B61EBE6
:1002800002014FF0004202EA0752CDE90042001C91
:1002900041F5801132462B4600F0FEF9B6E7001B0F
:1002A00061EB0201001C41F5801300185B4120182E
:1002B000A2F5001747EB030140EAD570B6196D416E
:1002C00011E06D084FEA360645EAC0754FEA07525D
:1002D000001B61EB0201001C41F5801149084FEA47
:1002E00030000019514132462B4603B0BDE8F04FB3
:1002F00000F0C5B90098012240000023D0EB0202B3
:1003000063EBE073009821464FEAE074B8EB00001D
:1003100061EB0401E9E783F000435BE781F0004112
:1003200058E72DE9FE4F81EA030404F0004421F070
:10033000004100944FF0000B23F0004350EA010409
:1003400002D052EA030404D10020014603B0BDE804
:10035000F08FC3F30A54C1F30A552C44A4F2F334CA
:100360000194A0FB0254C1F3130141F48011C3F3C3
:10037000130343F4801301FB024400FB034E840A81
:10038000970A44EA815447EA8357A4FB0768029519
:100390008D0A05FB07854FEA932C04FB0C542705B7
:1003A000029D4FEA065847EA1637B5EB08056EEB93
:1003B000070C870E920E47EA811742EA8312A7FBC9
:1003C0000201B6EB0B0164EB00042B0D43EA0C3386
:1003D0005E1844EB1C50DA465146E7FB0201C5F3B8
:1003E00013044FEA0B3343EA14534FEA0432019CDF
:1003F00043EA0603A4F10C040294009CCDE900B486
:1004000000F04AF9A2E72DE9F04D81EA030404F077
:10041000004B21F0004514464FF0000A23F0004144
:1004200050EA050220D054EA01021DD0C5F30A5754
:100430000246C5F31303C1F31300C1F30A5640F497
:10044000801543F48013A7EB0608101BD64608F26C
:10045000FD3873EB050002D308F1010801E09218A2
:100460005B41B8F1000F03DA00200146BDE8F08DD2
:1004700000204FF48011064684460EE0171B73EBF4
:10048000050705D3121B63EB050306434CEA010C79
:1004900049084FEA300092185B4150EA0107EDD15C
:1004A00052EA030012D082EA040083EA05010843FD
:1004B00003D100224FF0004308E0101BAB4102D2F1
:1004C0000122002302E06FF0010253101AEB060034
:1004D0004CEB085110EB0A0041EB0B01BDE8F04D6D
:1004E00000F0CDB800F0004230F000400AD0C10D5D
:1004F00001F56071C0F3160042EA0151C2084007DD
:100500001143704700200146704701F0004330B4AA
:1005100021F0004150EA010206D00A0DA2F56072F6
:10052000C1F31301002A02DC30BC00207047440FE5
:1005300044EAC104C100E01830BC00EBC25000F036
:1005400068B830B50B46014600202022012409E09E
:1005500021FA02F59D4205D303FA02F5491B04FA7C
:1005600002F52844151EA2F10102F1DC30BD2DE98F
:10057000F05F0546002092469B4688460646814627
:1005800040241BE0284641464746224600F066F9D3
:1005900053465A46C01A914110D311461846224676
:1005A00000F016F82D1A67EB01084F46224601208D
:1005B000002100F00DF817EB00094E41201EA4F1B8
:1005C0000104DFDC484631462A464346BDE8F09F39
:1005D000202A04DB203A00FA02F100207047914003
:1005E000C2F1200320FA03F3194390407047202AF8
:1005F00006DBCB17203A41FA02F043EAE07306E04B
:1006000041FA02F3D040C2F120029140084319465A
:1006100070470029A8BF7047401C490008BF20F060
:100620000100704710B4B0FA80FC00FA0CF050EAF8
:10063000010404BF10BC704749B1CCF1200421FA79
:1006400004F411FA0CF118BF012121430843A3EB74
:100650000C01CB1D0106000A002BBEBF002010BC00
:10066000704700EBC35010440029A4BF10BC704772
:10067000401C490008BF20F0010010BC704710B5B5
:10068000002B08DA401C41F1000192185B411A432B
:1006900001D120F0010010BD2DE9F04D92469B469E
:1006A00011B1B1FA81F202E0B0FA80F22032904644
:1006B000FFF78EFF04460F4640EA0A0041EA0B01AD
:1006C00053465A46084303D120463946BDE8F08DCB
:1006D000114653EA010015D0C8F14002504600F01F
:1006E000BDF805460E46504659464246FFF770FF94
:1006F000084301D0012000E00020054346EAE076EF
:100700002C4337430A984FEA4453A0EB08004FEAC2
:10071000D4240A304FF0000244EA47544FEAD72568
:1007200002D500200146D1E7010510196941DDE934
:10073000084500196941BDE8F04DA0E72DE9F04DED
:1007400000231A461B1A8A4103DB00200146BDE83C
:10075000F08DC1F30A52C1F3130141F480154FF03B
:10076000000BD10702D100186D41521E002704462C
:1007700040F2FF11384601EB620A3E4680460246CF
:1007800000204FF4801100F069F8C2197141BB18C4
:1007900046EB0100B4EB030C75EB000C04D3E41A38
:1007A00065EB000517460E46241908F101006D415E
:1007B00080463428E3DDF91946EB0600091BA84101
:1007C00003D24FF0FF32134601E0002213461BEB29
:1007D000070046EB0A51BDE8F04DFFF750BFC1F3EB
:1007E0000A52C1F3130140F2FF3341F480119A42DF
:1007F00002DA00200146704740F233439A42A2F2E7
:10080000334202DC524200F029B8FFF7E1BE00009B
:1008100030B5002904DB4FF00044404264EB010195
:10082000002B04DB4FF00044524264EB0303994277
:1008300008BF904230BD0000064C074D06E0E0685E
:1008400040F0010394E8070098471034AC42F6D317
:10085000FFF79EFC803A0008A03A0008202A04DB3B
:10086000203A21FA02F00021704721FA02F3D04029
:10087000C2F120029140084319467047FEE77047D5
:100880000249086008680028FCD17047D0000020A9
:10089000F0B50023012403270D6804FA03F2154084
:1008A000954242D1D0F800C05E0007FA06F52CEA66
:1008B000050CC0F800C091F804C0D0F800E00CFAB4
:1008C00006FC4CEA0E0CC0F800C091F804C0BCF164
:1008D000010F02D0BCF1020F1FD1D0F808C02CEAE2
:1008E000050CC0F808C091F805C0D0F808E00CFA73
:1008F00006FC4CEA0E0CC0F808C0D0F804C02CEA84
:10090000020CC0F804C0426891F806C00CFA03FC5F
:100910001FFA8CFC42EA0C024260C268AA43C26021
:10092000CA79C568B2402A43C2605B1C102BB3D39E
:10093000F0BD4B07DB0E9A40C90810B500EB8100F3
:10094000016A0F249C40A1430162016A11430162C4
:1009500010BD42694A404261704700003EB50446FE
:100960000020009001900623032269463C2000F0FD
:100970001BF801208DF808000A480078012804D1EE
:10098000022202A93C2000F087F800214FEA0D0066
:1009900030F8112052BA24F81120491CC9B2032999
:1009A000F6D33EBDC80000202DE9F047374C1D4668
:1009B00091460E4682464FF400373946204600F0F5
:1009C0007DF90028F9D10121204600F063F9304F6C
:1009D0002046394600F0D5F80028F9D000225146CB
:1009E000204600F0DEF9DFF8AC802046414600F0FA
:1009F000C8F80028F9D00121204600F0D4F8494673
:100A0000204600F0D6F9DFF88C8008F10208414654
:100A1000204600F0B6F80028F9D00121204600F069
:100A200039F93946204600F0ACF80028F9D0012207
:100A30005146204600F0B5F9154F7F1C3946204637
:100A400000F09FF80028F9D0114F3F37BDB1012DBC
:100A500007D10021204600F08AF80121204600F04D
:100A600023F93946204600F08CF80028EED02046C5
:100A700000F094F96D1E06F8010BADB2E6E72046D2
:100A8000BDE8F047012100F072B8000000540040BA
:100A900001000300820007002DE9F0411B4C0E46C7
:100AA000074690460121204600F0F4F8184D2046F4
:100AB000294600F066F80028F9D000223946204681
:100AC00000F06FF9134D2046294600F05AF800282F
:100AD000F9D04146204600F06CF90E4DAD1C294678
:100AE000204600F04EF80028F9D03178204600F07A
:100AF00060F92946204600F044F80028F9D0204645
:100B0000BDE8F041012100F0CFB8000000540040E2
:100B1000010003008200070008B578208DF800006E
:100B2000002269463C20FFF7B7FF012000F004F8DF
:100B3000012000F00BF808BD08B540018DF8000059
:100B4000012269463C20FFF7A7FF08BD38B5064CD7
:100B50000546022220788DF8000069463C20FFF708
:100B60009BFF257038BD0000C8000020FEE700296B
:100B7000018802D041F4806101E021F480610180AC
:100B8000704702460020938A128B43EA024323F007
:100B90007F42914300D101207047C9438182704751
:100BA000C943818270470029018802D041F00101C8
:100BB00001E021F0010101807047000010B586B00E
:100BC0000121022000F09CFE0121480500F0A4FE56
:100BD000C020049002208DF8140001218DF8161019
:100BE0008DF81710174C8DF8150004A92046FFF753
:100BF0004FFE042206212046FFF79BFE0422072118
:100C00002046FFF796FE104C204600F021F8002108
:100C1000ADF804104BF6FF70ADF80600ADF8081003
:100C20002015ADF80A00094800902014ADF80C001A
:100C30006946204600F058F801212046FFF7B3FF2F
:100C400006B010BD0004024000540040A086010020
:100C50000D4910B5884202D101214C050AE00B492B
:100C6000884202D101218C0504E0094988420AD159
:100C70000121CC05204600F05BFE2046BDE8104077
:100C8000002100F055BE10BD005400400058004047
:100C9000005C00400029018802D041F4807101E02D
:100CA00021F48071018070470029018802D041F44D
:100CB000007101E021F40071018070470CB502461B
:100CC000002000920A0F21F07F41019202D0009A89
:100CD000143202E0009A090C1832009212680A429B
:100CE00000D001200CBD00007FB5044680880D4671
:100CF00020F03F06684600F033FE26490298B0FB1C
:100D0000F1F189B20E43A680228822F001022280EE
:100D1000214B2A689A421BD85200B0FBF2F080B2F5
:100D2000042800D20420491C2184A083208840F09C
:100D30000100208021884FF6F5300140A8886A899B
:100D4000104308432080A8892989084320817FBD5A
:100D5000EB88A3F53F46FF3E05D102EB4202B0FB14
:100D6000F2F080B208E002EBC20303EB0212B0FB28
:100D7000F2F080B240F48040020501D140F0010061
:100D80004FF4967251434FF47A72B1FBF2F140F492
:100D90000040C8E740420F00A0860100008AC0B2B0
:100DA000704712B141F0010101E001F0FE01018242
:100DB0007047018270471FB504460E233B226946E7
:100DC000D02000F00DF80021684630F8112052BA0A
:100DD00024F81120491CC9B20729F6D31FBD000011
:100DE0002DE9FF5F5E4C41F28837DFF878911D46B0
:100DF0000E464FF40038276041464846FFF75EFF35
:100E000010B120680028F7D101214846FFF742FFC2
:100E1000206808B900F048FEB8462760524F01E04C
:100E2000401E206039464846FFF7ABFE0028206888
:100E300001D010B103E00028F2D100F035FE00220D
:100E4000CA4648460099FFF7ACFFC146C4F8008087
:100E5000DFF818B1D04601E0401E206059464046F8
:100E6000FFF78FFE0028206801D010B103E00028B2
:100E7000F2D100F019FE01214046FFF794FE4046F2
:100E80000299FFF796FFDFF8E4A0C4F800900AF19A
:100E9000020A01E0401E206051464046FFF771FE05
:100EA0000028206801D010B103E00028F2D100F042
:100EB000FBFD0121C2464046FFF7ECFEC846C4F8E0
:100EC0000090B946574601E0401E2060494638462A
:100ED000FFF757FE0028206801D010B103E000287A
:100EE000F2D100F0E1FD012238460099FFF759FFE9
:100EF000C4F80080DFF8708008F1010801E0401EAE
:100F0000206041463846FFF73CFE0028206801D0AB
:100F100010B11CE00028F2D100F0C6FD012501E06F
:100F2000012D07D100213846FFF721FE0121384667
:100F3000FFF7BAFE0C4938463F31FFF722FE30B1C9
:100F40003846FFF72BFF6D1E06F8010BADB2002DE2
:100F5000E6D104B03846BDE8F05F0121FFF707BED7
:100F6000CC00002000540040010003008200070074
:100F70002DE9F047334D88468146924601212846A7
:100F8000FFF788FE304C41F28836304F266001E092
:100F9000401E206039462846FFF7F3FD00282068F0
:100FA00001D010B103E00028F2D100F07DFD002255
:100FB00049462846FFF7F5FE254F266001E0401E12
:100FC000206039462846FFF7DCFD0028206801D064
:100FD00010B103E00028F2D100F066FD514628462A
:100FE000FFF7E7FE1A4F2660BF1C01E0401E20609D
:100FF00039462846FFF7C5FD0028206801D010B10A
:1010000003E00028F2D100F04FFD98F800102846C8
:10101000FFF7CFFE266001E0401E206039462846DB
:10102000FFF7AFFD0028206801D010B103E00028D1
:10103000F2D100F039FD2846BDE8F0470121FFF765
:1010400033BE000000540040CC000020010003002B
:101050008200070000B589B000208DF80C00042044
:101060008DF8100003208DF8140001208DF8180071
:1010700022208DF81C00012000F05CF81A2205A93E
:10108000D020FFF775FF192204A9D020FFF770FFC9
:10109000002000F06AF801231B226946D020FFF7E8
:1010A0009FFE9DF800001B2220F0E0008DF8040058
:1010B00001A9D020FFF75CFF9DF800001B2220F063
:1010C00018008DF8080002A9D020FFF751FF032077
:1010D00000F042F801231C226946D020FFF780FE71
:1010E0009DF800001C2220F0E0008DF8040001A90A
:1010F000D020FFF73DFF9DF800001C2220F01800D3
:101100008DF8080002A9D020FFF732FF032000F07D
:101110001AF8382206A9D020FFF72AFF6A2203A96D
:10112000D020FFF725FF372207A9D020FFF720FFA7
:1011300009B000BD08B50323009002226B21D02026
:1011400000F034F808BD08B50223009004221C21E9
:10115000D02000F02BF808BD08B50223009004222F
:101160001B21D02000F022F808BD034606226B2187
:10117000D020AFF30080F8B515461C460E460A464F
:10118000074601236946FFF72BFE01209DF800105A
:10119000A8400CB1084301E021EA00008DF80000EE
:1011A000324669463846FFF7E3FEF8BD2DE9F843BD
:1011B00016461D460F460A46804601236946089C8E
:1011C000FFF70EFE0120A840401E711B491C8840FD
:1011D0008C409DF800100440814321438DF800109D
:1011E0003A4669464046FFF7C3FEBDE8F883000073
:1011F000F0B5B5EEC03A2DED0A0BF1EE10FA2DED7B
:10120000108B9DB011D1F5EEC03AF1EE10FA0CD171
:10121000B5EEC04AF1EE10FA07D11DB0BDEC108B4F
:101220000AB0BDE8F04000F01DBAFE4CFE4DFF4E86
:1012300094ED006AD5ED005AD6ED006A66EE404A9C
:10124000B6EE005AFA4FF5EEC01A45EEE04A46EE09
:10125000C14A24EE85FAD7ED004A24EE807A05EEE5
:10126000817A06EEE07A67EE05EA24EEA07A06EED1
:10127000417A24EE811A06EE201A06EE807A05EEF7
:10128000C01A27EE05EA61EE05DAF1EE10FA09D18F
:10129000B5EEC02AF1EE10FA04D1F5EEC02AF1EE57
:1012A00010FA7CD021EEA10A02EE020A02EEA20A96
:1012B00002F0FEF821EE805A62EE001A22EE808AD9
:1012C00023EE030A8DED305ACDED311A8DED328AC1
:1012D00003EEA30A04EE040A02F0EAF8D7ED002AAE
:1012E000B0EE008A63EE009A62EE88FA23EE809AEE
:1012F00064EE008A22EEA2DA6FEEA91A2FEEA82A77
:10130000CDED061A6FEE891ACDED041A94ED001A90
:1013100021EE08BA61EE01BA2BEE294A8DED0B4A97
:10132000D5ED000A96ED000A60EE88AA20EE08CA04
:101330006FEEA01A22EE806A8DED16CACDED0C1A62
:101340002AEE804A62EE811A61EE00CA8DED0E4AE5
:10135000CDED171A62EEA01A69EE8D2A20EEA0AA32
:10136000CDED0A1A8DED156A61EE201A20EE806A25
:1013700020EE00CACDED0D1A8DED196ADDED041ACF
:1013800041EEC02A6BEE091A42EE202A49EEAB2A42
:1013900041EEA02A6BEE281A41EE802A00E010E10F
:1013A000DDED061A9DED0B4A49EECA2A61EE801A60
:1013B00049EE0D1A49EECC2A42EE411A44EE201AAB
:1013C0006AEEA80A49EE6B1A49EE0A1A40EE801A34
:1013D00022EEA20A49EE4C1A01EEA10A10EE100A02
:1013E000FFF780F841EC100B01F012FB51EC100BF1
:1013F000FFF78BF8DDED041AD4ED003A95ED003AD5
:101400009DED0B4A61EEA30ADDED061A96ED001A7A
:101410009DED305A41EEC30A6AEE891AB6EE002AF3
:1014200000EE100A9DED156A48EE8D0A20EE087A4E
:1014300044EE010A9DED0E4A48EEEB0A41EE810AA8
:10144000DDED171A01EE884ADDED311A48EECA0AC1
:1014500074EE614ADDED0C1A48EE8C0A5CEE881AD7
:1014600064EE8B2A60EEA35A60EE837A31EEC54AB1
:1014700072EE4A1A32EE6B2A60EE886A4AEEC42A8D
:1014800071EECC1A32EE4A2A21EE805ADDED0A1AAC
:101490007CEEE11A00EEA15ADDED0D1A71EEC61ACE
:1014A0009DED196A35EE695AF0EE659A21EE80CA13
:1014B000DDED171A47EEC52A40EE419A71EE861A05
:1014C00000EEA1CADDED0A1A71EEAC1A3CEE496AD3
:1014D000B7EE009A61EE801A0BEEC89A9DED16CA1F
:1014E00049EE862A40EE821AF1EE009A20EE032A97
:1014F0000AEE489A9DED328A71EEE88A64EE0C1A83
:1015000039EE489A23EEA98A4FEEA41A42EE282A11
:1015100048EE491A20EE818A48EE051A97ED008AB6
:1015200063EE299A47EE415A00EE882A40EE487A47
:1015300042EE061A20EE012A06EEE32A60EE233A76
:1015400042EE281A24EE8C2A0FEEC42A09EEC92A8C
:1015500027EE439A00EEC89A09EE052AB0EE639A88
:1015600000EE819A60EE080A22EEA20A46EEC30A55
:1015700024EE0B3A09EE062A01EEA10A0AEEA43A7D
:1015800000EEA82A05EE853A02EE020A07EE863A38
:1015900003EEA83A03EE030A01F08AFF61EE800A27
:1015A000244862EE001A22EE801A23EE002A90ED03
:1015B000000A00EE41FA40EE60EA00EE61EA40EE19
:1015C00042DA1D4897ED002A90ED000A0FEE002A3E
:1015D00087ED002AD4ED000A4EEE800AC4ED000A21
:1015E00095ED001A0EEE001A85ED001AD6ED001AE0
:1015F0004DEE801A22EE020A00EEA00AC6ED001A95
:1016000001EE010A01EEA10A01F052FFD7ED000A36
:1016100060EE800AC7ED000AD4ED000A60EE800A91
:101620000CE00000380000203C00002040000020BA
:10163000340000209C000020A0000020C4ED000A1F
:10164000D5ED000A60EE800AC5ED000AD6ED000A6D
:1016500020EE800A86ED000A1DB0BDEC108B0AB0AA
:10166000F0BD000030B5854B854C864D864AF6EEC0
:10167000003A2DED0A8BF5EEC01A93ED004A94ED79
:10168000007AD5ED004A24EE403AD2ED006A07EE2A
:10169000603A04EEC13A23EE236A26EE803A07EE62
:1016A000013A04EEE03A63EE235A26EEA03A04EE45
:1016B000413A26EE811A04EE201A04EE803A07EE33
:1016C000401A23EE235A61EE236AF1EE10FA09D193
:1016D000B5EEC02AF1EE10FA04D1F5EEC02AF1EE13
:1016E00010FA7CD021EEA10A02EE020A02EEA20A52
:1016F00001F0DEFE21EE801A22EE004AD2ED001A41
:1017000094ED002AF1EE003A22EE809AF0EE000A03
:1017100093ED000A95ED007A21EEA3CA62EE024A2B
:1017200062EE208A21EEA0AA20EE208A2CEE243A36
:1017300067EE20AA60EE237A27EE07BAF2EE000ADF
:1017400008EE813A60EE20BA62EE209A67EE8BCA0C
:1017500060EE000A61EEA11A62EE232A4AEEC1CAC7
:101760000CEE203A21EEA3CA4CEE00CA2CEE020A7F
:1017700008EE443A0AEE010A4AEE44CA02EE8B0A27
:101780007CEEE71A4BEEA01A0AEEC40A4BEEA41A3E
:1017900030EE622A20EEA30A09EEA02A47EE891A4B
:1017A00009EEA42A02EE892A60EE072A24EEA30A93
:1017B00048EE412A40EE072A23EE030A01EEA10A71
:1017C00048EEC42A02EE020A02EEA20A01F070FEFE
:1017D00063EE000A21EE801A22EE002A00E00CE0FF
:1017E0002A4862EE801A90ED000A00EE606A40EE30
:1017F000415A00EE425A40EE616A254892ED002AB5
:1018000090ED000A06EE002A82ED002AD3ED000AD0
:1018100045EE800AC3ED000A94ED001A05EE001AA9
:1018200084ED001AD5ED001A46EE801A22EE020A67
:1018300000EEA00AC5ED001A01EE010A01EEA10AB0
:1018400001F036FED2ED000A60EE800AC2ED000A19
:10185000D3ED000A60EE800AC3ED000AD4ED000A61
:1018600060EE800AC4ED000AD5ED000A20EE800A81
:1018700085ED000ABDEC0A8B30BD00003800002069
:101880003C00002040000020340000209C0000208C
:10189000A0000020FEE7704770B50F21C4780278E1
:1018A00001234FF0E026E4B1124C246804F4E06414
:1018B000C4F5E064C4F30724C4F10405E1404478AE
:1018C000AC4085780D4025430B4C2901115500781B
:1018D00000F01F018B40400906EB8000C0F800318A
:1018E00070BD02F01F008340500906EB8000C0F875
:1018F000803170BD0CED00E000E400E070470000B6
:10190000044A0029116801D0014300E081431160BD
:101910007047000030380240044A0029116801D0A5
:10192000014300E0814311607047000040380240ED
:10193000044A0029116801D0014300E0814311608D
:101940007047000020380240044A0029116801D085
:10195000014300E0814311607047000044380240B9
:1019600070B5204A1168204C11F00C0104D06610AB
:10197000042903D0082903D004601BE0066019E0A5
:101980001849091F0B68C3F380550B6803F03F0328
:1019900015B1B6FBF3F301E0B4FBF3F30C6809688F
:1019A000C4F388146343C1F30141491C4900B3FBEC
:1019B000F1F1016011680F2303EA11110B4B5C5C1C
:1019C0000168E14041601468072505EA94241C5D24
:1019D00021FA04F48460126805EA52329A5CD1401C
:1019E000C16070BD083802400024F400B800002037
:1019F000704700000CB500202749019000900A684C
:101A000042F480320A604FF4A0630A6802F40032A4
:101A10000092019A521C0192009A12B9019A9A42BC
:101A2000F3D10A68920334D5012000901A4840305F
:101A3000026842F0805202601848026842F4804214
:101A400002601548083002680260026842F40042F1
:101A50000260026842F4A0520260031F104A1A603A
:101A60000A6842F080720A600A689201FCD50D4A49
:101A700040F205611160016821F003010160016815
:101A800041F0020101600168C1F381010229FAD12C
:101A90000CBD00900CBD00000038024000700040FA
:101AA00008544007003C024010B5234C0121204659
:101AB000FFF7FAF821492046FFF772F8204920463F
:101AC000FFF76EF81F492046FFF76AF81E492046C7
:101AD000FFF766F81D492046FFF762F84FF0012135
:101AE0002046FFF75DF81A492046FFF756F81949D6
:101AF0002046FFF752F84FF010212046FFF74DF82F
:101B000015492046FFF749F814492046FFF745F8E4
:101B100013492046FFF741F812492046FFF73DF8E8
:101B200000212046FFF723F801212046FFF7BCF8EB
:101B3000FFF790FA012010BD005400400040000162
:101B40000010000100080001000400010002000173
:101B50000080001000400010000800100004001079
:101B6000000200100001001010484FF47A71006864
:101B7000B0FBF1F0401EB0F1807F0BD3BFF34F8F6D
:101B80000B4801680B4A01F4E06111430160BFF3A7
:101B90004F8FFEE74FF0E0214861054AF0201732F1
:101BA000107000208861072008617047A4000020A1
:101BB0000CED00E00400FA0507484168491C41604B
:101BC000016811B10168491E01608168002902D0D5
:101BD0008168491E81607047D0000020124810B50E
:101BE000016841F0010101600F4A002108321160D3
:101BF00002680E4B1A400260031D0D4A1A6002680B
:101C000022F48022026008480C300160FFF7F2FEE7
:101C100008494FF00060086006488030016841F4D0
:101C20007001016010BD000000380240FFFFF6FEA9
:101C30001030002408ED00E00029818902D041F431
:101C4000005101E021F400518181704702460020DB
:101C500012880A4200D00120704710B5C1F3421328
:101C600001F01F040121A140012B07D0022B07D056
:101C70001430002A026805D00A4304E00C30F8E76B
:101C80001030F6E78A43026010BD00007FB50446BD
:101C9000008A0D4620F44051E88808432082A0893C
:101CA00041F20C618843A9882A8911436A89024359
:101CB0001143A181A08A20F44071A8890843A08221
:101CC0006846FFF74DFE1D48844202D01C488442FE
:101CD00001D1039800E00298A1890904002900EBD2
:101CE000C00101EB0010296802DA4FEA410101E06E
:101CF0004FEA8101B0FBF1F26420B2FBF0F14FEA50
:101D000001114FEA11136FF018056B4302EB8302C8
:101D1000A3891D044FF0320306D503EBC202B2FBC8
:101D2000F0F000F0070005E003EB0212B2FBF0F068
:101D300000F00F00084320817FBD0000001001402B
:101D400000140140C1F308018180704770B50C4652
:101D500005460BE080212846FFF778FF0028F9D0E0
:101D600021782846FFF7EEFF14F8010B20780028B1
:101D7000F0D170BD2DE9F04F87B04FF000044FF067
:101D8000020A8DF804A002918DF805A0ADF80C4070
:101D9000ADF810404FF00C011E0017468DF80640BC
:101DA000ADF80E40ADF81440ADF812104FF001053B
:101DB00005D08DF819408DF81A408DF81B50DFF8CA
:101DC0009083DFF89093DFF890B306287AD2DFE8AB
:101DD00000F00353ADFDFCFB01211020FFF7B4FD23
:101DE000012F02D0022F3ED11EE001210846FFF74D
:101DF00087FD4FF4007000908DF807406946444617
:101E00004046FEF745FD4FF4806000908DF8075086
:101E100069462046FEF73CFD072209212046FEF7D1
:101E200088FD07220A211BE001210220FFF768FD3F
:101E30008DF807404020C94C009069462046FEF7C7
:101E400027FD802000908DF8075069462046FEF758
:101E50001FFD072206212046FEF76BFD07221146D3
:101E60002046FEF766FDBE4C02A92046FFF70EFF96
:101E7000012E5AD125204DE001214804FFF74CFDE9
:101E8000012F02D0022F3DD11DE001210846FFF7AE
:101E900037FD042000908DF80740694644464046CF
:101EA000FEF7F6FC082000908DF8075069462046A2
:101EB000FEF7EEFC072202212046FEF73AFD07223C
:101EC00003211CE041E101210820FFF719FD20203A
:101ED00000908DF8074069464C464846FEF7D8FC0E
:101EE000402000908DF8075069462046FEF7D0FC50
:101EF000072205212046FEF71CFD07220621204669
:101F0000FEF717FD974C02A92046FFF7BFFE002EF3
:101F10000BD026208DF8180006A8FFF7BDFC012283
:101F200040F225512046FFF798FE0AE1012188047E
:101F3000FFF7F2FC012F02D0022F3FD11DE001215B
:101F40000220FFF7DDFC8DF807404FF48060834CE2
:101F5000009069462046FEF79BFCE01400908DF847
:101F6000075069462046FEF793FC07220B212046C6
:101F7000FEF7DFFC07220A211DE001210820FFF700
:101F8000BFFC4FF4807000908DF8074069464C46C6
:101F90004846FEF77DFC4FF4007000908DF8075026
:101FA00069462046FEF774FC072209212046FEF709
:101FB000C0FC072208212046FEF7BBFC6A4C02A9A0
:101FC0002046FFF763FE02E06AE033E003E0002E04
:101FD000ABD027209EE70121C804FFF79DFC012F0D
:101FE00001D0022F1DD101210846FFF789FC8DF891
:101FF00007400095694644464046FEF749FCCDF847
:1020000000A08DF8075069462046FEF741FC0822E3
:1020100000212046FEF78DFC082201212046FEF714
:1020200088FC524C02A92046FFF730FE002E73D0E8
:1020300034206FE701210805FFF76EFC4FF480584C
:10204000012F01D0022F23D101210420FFF758FCDA
:1020500001210820FFF754FC8DF80740CDF80080DF
:1020600069465C465846FEF713FC042000908DF844
:10207000075069464D464846FEF70AFC08220C21E7
:102080002046FEF756FC082202212846FEF751FCA6
:10209000374C02A92046FFF7F9FDEEB3352039E7AA
:1020A00001212020FFF750FC012F02D0022F40D148
:1020B0001CE001210420FFF723FC402000908DF854
:1020C000074069465C465846FEF7E2FB80200090D8
:1020D0008DF8075069462046FEF7DAFB08220721F3
:1020E0002046FEF726FC082206211FE001214020A1
:1020F000FFF706FC8DF807404FF400701D4C009070
:1021000069462046FEF7C4FB4FF4804000908DF8EE
:1021100007506946204600E013E0FEF7B9FB0822AD
:1021200009212046FEF705FC08220E212046FEF775
:1021300000FC114C02A92046FFF7A8FD0EB1472074
:10214000E8E601212046FFF777FD07B0BDE8F08FF4
:1021500000000240000C024000080240000402405F
:10216000001001400044004000480040004C004086
:10217000005000400018024000140140FEE700003B
:102180000FB4084B10B504A902AA039800F0D0FDC3
:10219000044602A9002001F06EF9204610BC5DF84B
:1021A00014FB00007734000803B401984100009844
:1021B00050EAC12018BF04204A0D18BF40F00100AA
:1021C00040F2FF72B2EB515F08BF40F002000128FD
:1021D00008BF052002B0704770B5C1482DED020B55
:1021E0002DED0E8B82B0119D25F000449FEDBEBBFE
:1021F0009FEDBFDB844240DBA4F140511098A1F178
:102200007F6108430ED0BC48844202DC27D110987D
:1022100028B39DED100B53EC102B51EC100BFDF778
:10222000D9FF27E09DED100B53EC1B2B51EC100B4D
:10223000FEF777F89DED100B41EC180B53EC1D2BBE
:1022400051EC100BFEF76DF853EC182BFDF7C2FFA5
:1022500041EC100B02B0BDEC0E8B02B070BD012042
:1022600000F0B2FC9FEDA60B53EC102B51EC100BC1
:10227000FEF7C9F841EC100BECE7A3489FEDA48BE7
:10228000844256DA9DED100BB4F1795F0ADA51EC15
:10229000100BFFF789FF042808BF00F075FC9DEDC7
:1022A000100BD7E753EC102B51EC100BFEF739F85D
:1022B00041EC190B98480621B0EE490AF0EE690A84
:1022C000784400F0E2FB53EC192B51EC100BFEF7B5
:1022D00028F841EC1A0B9148B0EE490AF0EE690A71
:1022E0000421784400F0D1FB53EC192B51EC100B76
:1022F000FEF717F853EC182BFDF76CFF41EC100BB1
:1023000051EC1A0B53EC102BFEF77DF841EC100B3F
:102310008DED000B53EC102B9DED100B51EC100BC1
:10232000FDF7FFFF9DED101B53EC112BFDF752FF46
:10233000A0E79DED100B51EC100B01F0A9F853EC48
:10234000182BFDF7EBFF41EC100B8DED000B9FED13
:10235000740B53EC102B9DED000B51EC100BFDF7A3
:10236000E0FF41EC190B70480621B0EE490AF0EE8F
:10237000690A784400F089FB53EC192B51EC100BDF
:10238000FDF7CFFF41EC1C0B6848B0EE490AF0EEB8
:10239000690A0421784400F078FB53EC192B51ECC6
:1023A000100BFDF7BEFF53EC182BFDF713FF41ECAC
:1023B0001E0B51EC190B01F0B1FA41EC180B5C4803
:1023C0009FED5DABA04222DC53EC1E2B51EC1C0BAD
:1023D000FEF719F841EC100B51EC180B8DED000BCA
:1023E00053EC102BFDF79DFF53EC182BFDF7F2FE7D
:1023F00053EC1A2BFDF795FF53EC1B2BFDF78BFFCE
:1024000053EC1D2BFDF78AFF41EC100B5FE08DEDC7
:10241000008B002000909DED000B51EC180B53EC4D
:10242000102BFDF7D7FE9DED000B41EC1D0B53EC7F
:10243000102B51EC100BFDF774FF53EC192BFDF72B
:102440006DFF53EC1D2BFDF7DEFF41EC190B53EC38
:102450001E2B51EC1C0BFDF7D6FF41EC1C0B53EC73
:102460001A2B51EC190BFDF75CFF53EC1B2BFDF7FE
:1024700055FF41EC190B53EC1A2B51EC180BFDF7DF
:1024800050FF53EC1C2BFDF74CFF53EC192BFDF7C1
:1024900042FF9DED000B41EC180B53EC1A2B51EC55
:1024A000100BFDF73EFF9FED269B53EC192BFDF71C
:1024B00035FF41EC100B51EC180B53EC102BFDF7D2
:1024C0002AFF53EC192BFDF729FF41EC100B002DCF
:1024D0003FF7C0AE51EC100B81F00041CAE600009E
:1024E0000000F03F00000000075C143326A6913C7A
:1024F000182D4454FB21F93F0000F07F000000003C
:1025000000000000000000000000E03F00000000AC
:10251000000000000000F03FCC160000DA160000BA
:10252000000000000000E03F1A160000281600001E
:102530003333EF3F000000000000000000000040C7
:10254000182D4454FB21E93F70B59F482DED020B37
:102550002DED068B079D25F00044A0421DDC9B4815
:10256000844202DC0FD1069868B19DED060B53EC56
:10257000102B51EC100BFDF72DFEBDEC068B02B0BD
:1025800041EC100B70BD002DCCBF9FED910B9FED6A
:10259000920BBDEC068B02B070BD9148A04215DDD8
:1025A0009048A042D8BF4FF0FF3440DD9DED060BB0
:1025B00051EC100BFFF7F8FD042808BF00F0E4FA17
:1025C0009DED060BBDEC068B02B070BD9DED060BBC
:1025D00051EC100B00F05CFF41EC100B82488DEDCC
:1025E000060B9FED838BA0423CDD8348A0421FDD9C
:1025F00000249FED839B51EC100B53EC192BFDF73E
:10260000E9FD9DED060B41EC1A0B53EC192B51EC37
:10261000100BFDF786FE53EC182BFDF77CFE53ECF8
:102620001A2BFDF7F0FE41EC100B8DED060B49E087
:10263000012453EC182B51EC100BFDF7CBFD9DED55
:10264000060B41EC190B53EC182B51EC100BFDF75A
:1026500062FE53EC192BFDF7D6FE41EC100B8DED0D
:10266000060B2FE06848A0421FDD02249FED689B07
:1026700051EC100B53EC192BFDF753FE53EC182BB8
:10268000FDF7A8FD9DED060B41EC180B53EC192B43
:1026900051EC100BFDF73FFE53EC182BFDF7B3FE8A
:1026A00041EC100B8DED060B0CE053EC102B0324CA
:1026B0009FED590B51EC100BFDF7A5FE41EC100BF3
:1026C0008DED060B9DED060B53EC102B51EC100B12
:1026D000FDF727FE41EC180B53EC182BFDF721FEFC
:1026E00041EC190B4E480621B0EE490AF0EE690A9A
:1026F000784400F0CAF953EC182B51EC100BFDF79D
:1027000010FE41EC180B4748B0EE490AF0EE690A9A
:102710000521784400F0B9F953EC192B51EC100B5A
:10272000FDF7FFFD41EC100B51EC180B53EC102B97
:10273000002C0EDAFDF74EFD9DED061B53EC112B20
:10274000FDF7EFFD9DED061B53EC112BFDF7E6FDAC
:1027500035E0FDF73FFD9DED061B53EC112BFDF71A
:10276000E0FD41EC100B3048784400EBC40090EDE4
:10277000001B51EC100B53EC112BFDF7CCFD9DED24
:10278000061B53EC112BFDF7C6FD41EC110B27483E
:10279000784400EBC40090ED000B51EC110B53ECAE
:1027A000102BFDF7BBFD41EC100B002DA2BFBDECC3
:1027B000068B02B070BD51EC100B81F0004141EC72
:1027C000100BFFE600000000000010440000F07F46
:1027D000182D4454FB21F93F182D4454FB21F9BF17
:1027E0000000DC3F0000203E0000F33F000000003E
:1027F000000000000000F03F0000E63F0000000085
:1028000000000000000000400080034000000000C5
:10281000000000000000F83F000000000000F0BFD2
:10282000541300000A130000941200004C12000020
:1028300070B52DED040B2DED028B82B0DDE9053472
:10284000DDF81CC062422CF00041224341EAD275FF
:102850005F4A049E23F00040954205D875423543F7
:1028600040EAD575954210D99DED060B53EC102B1F
:102870009DED040B51EC100BFDF7ACFC41EC100B83
:1028800002B0BDEC028B04B070BDACF14055A5F1B7
:102890007F6525430BD0022505EAAC7545EAD37563
:1028A00006439FED4D8B9FED4E2B07D010E09DED25
:1028B000040B51EC100B00F0E3FD39E0002D14BFC8
:1028C000012D9DED040BDBD0022D34D0032D37D02C
:1028D0000C439FED451B9FED460B0AD0914218D14A
:1028E000904209D121F0804120F08040079105906D
:1028F0000FE0002BC4DA10E03F4C7C44002D08BFF1
:1029000094ED000BBCD0012D0CD0022D13D0032D63
:1029100016D0904219D1002BB2DAB0EE410AF0EE97
:10292000610AADE794ED000B51EC100B81F0004112
:1029300041EC100BA4E7B0EE480AF0EE680A9FE7FE
:10294000B0EE420AF0EE620A9AE7401A00153C28FF
:1029500017DCBCF1000FBCBF10F13C0F9FED280B42
:102960000FDB9DED060B53EC102B9DED040B51EC92
:10297000100BFDF748FD00F08BFD00F081FD41ECF0
:10298000100B002D8DED000B3FF47AAF012D10D010
:10299000022D9FED1D0B53EC102B9DED000B51EC08
:1029A000100B0ED0FDF7B7FC53EC182BFDF7B3FC62
:1029B000BEE710EE900A80F0004001909DED000B04
:1029C0005EE7FDF7A8FC53EC182BFDF7A7FCAFE77B
:1029D0000000F07F00000000182D4454FB21094046
:1029E000182D4454FB2109C0182D4454FB21F9BF74
:1029F000182D4454FB21F93F7A110000000000001B
:102A00000000000000000000075C143326A6A13C73
:102A100000B52DED048BB0EE408AF0EE608A83B0F5
:102A200051EC180BFDF78AFE41EC190B19EE100A58
:102A300019EE901A8DED009B002818BF0120084365
:102A400020F00040C0F17F6000F1E040C00F14D0E2
:102A500018EE101A18EE900A8DED008B002918BFA1
:102A60000121084320F00040C0F17F6000F1E04008
:102A7000C00F04BF012000F0A7F8B0EE490A03B070
:102A8000F0EE690ABDEC048B00BD70B504462DED77
:102A9000028B4D1E00EBC500B0EE408AF0EE608A5E
:102AA00090ED000B35F0060017D053EC182B51ECCD
:102AB000100BFDF736FC41EC100B6D1E04EBC5004E
:102AC00090ED001B51EC100B53EC112BFDF782FB2A
:102AD00041EC100B35F00600E7D1022D36D0042D65
:102AE0001CD0062D1CBFBDEC028B70BD53EC182B07
:102AF00051EC100BFDF715FC94ED0A1B53EC112B58
:102B0000FDF768FB53EC182BFDF70BFC94ED080B5D
:102B100053EC102BFDF75EFB41EC100B53EC182B24
:102B200051EC100BFDF7FDFB94ED060B53EC102B55
:102B3000FDF750FB53EC182BFDF7F3FB94ED041B52
:102B400053EC112BFDF746FB41EC100B53EC182B0B
:102B500051EC100BFDF7E5FB94ED020B53EC102B41
:102B6000FDF738FB53EC182BFDF7DBFB94ED000B66
:102B700053EC102BFDF72EFBBDEC028B41EC100B40
:102B800070BD0000000000009FED050B10B553EC78
:102B9000102B51EC100BFDF7C4FB41EC100B10BDDA
:102BA000000000000000001002E008C8121F08C169
:102BB000002AFAD170477047002001E001C1121FBE
:102BC000002AFBD1704700000149086070470000EF
:102BD000DC0000202DE9FF5FDDE90220010DDDF8BA
:102BE00038B0024310D10F9801244CA2012808D01C
:102BF000002100980F9BC0E90021C0E90243BDE815
:102C0000FF9F6FEA0B01F4E7A1F2FF3144F6105089
:102C100041430D140F9801280ED0A5EB0B00401C6A
:102C20004FF000043E4EDFF8FC90B0F1000AA046E1
:102C300005DACAF1000717E0CBF10000F0E707461C
:102C400012E0F80707D02246334640464946FDF7D2
:102C500068FB804689462246334610461946FDF7F2
:102C600060FB04460E467F10002FEAD1DDE9020129
:102C7000BAF1000F42464B4602DAFDF752FB01E083
:102C8000FDF7C1FB04460E460022274BFDF7C0FDB1
:102C900003D84FF0FF30014607E00022234B2046C7
:102CA0003146FDF797FAFDF79AFD102409E0002C54
:102CB0000ADB0A220023FDF75AFC019B30321A5529
:102CC000641E50EA0102F2D1641C019AC4F111039E
:102CD00014440F9A012A09D00122084301D15B450F
:102CE0000FDD4FF0000205F101050DE0084303D1AF
:102CF000A3EB0B056D1E09E000204FF0110B0F90A8
:102D000088E701DA00226D1E002A83D000980F990F
:102D1000C0E90231C0E9004571E700003000000061
:102D2000000024400000F03F0000F0430000E03FBE
:102D30002DE9FF4F95B09B4689460646002512E2D5
:102D4000252878D10024761CF94A274601210594CC
:102D50003378203B01FA03F0104202D00443761C82
:102D6000F6E730782A2811D06FF02F033078A0F1E1
:102D70003002092A16D8059A44F0020402EB8202B6
:102D800003EB42021044761C0590EFE759F8042B40
:102D90000592002A03DA504244F40054059044F0AE
:102DA0000204761C30782E2816D116F8010F44F054
:102DB00004042A280DD06FF02F023078A0F13003E0
:102DC000092B09D807EB870302EB4303C718761CCE
:102DD000F3E759F8047B761C30786C280FD006DCBA
:102DE0004C2817D068280DD06A2814D104E0742824
:102DF00010D07A280FD10DE044F400140AE044F416
:102E0000801401E044F440147278824202D1761CAE
:102E100004F58014761C307866280BD013DC582813
:102E200077D009DC002875D04528F6D04628F4D0A4
:102E300047281AD19FE118E0632835D0642879D05B
:102E4000652812D197E1702873D008DC6728F1D08B
:102E500069286FD06E280DD06F2806D1B5E0732891
:102E60002CD0752875D0782874D05A461799904779
:102E70006D1C76E1C4F30250022809D003280DD05E
:102E8000D9F8001004280DD00D6009F1040968E19B
:102E9000D9F80010EA17C1E90052F6E7D9F8001096
:102EA0000D80F2E70D70F0E719F8041B8DF80010A3
:102EB00000208DF80100EA46012003E059F804AB38
:102EC0004FF0FF3061074FF0000102D40DE008F130
:102ED00001018846B9420FDA8045F8DB1AF808107C
:102EE0000029F4D108E008F1010188468142FADBAB
:102EF0001AF808100029F6D105985B46A0EB0807E0
:102F000021463846179A00F09EFA284400EB08053F
:102F100007E04DE02BE10DE01AF8010B5A46179936
:102F20009047B8F10108F7D25B4621463846179A18
:102F300014E142E00A220092C4F302524FF0000A68
:102F4000022A08D059F804CB032A4FEAEC710AD0C0
:102F50000DE029E02AE009F1070121F00702F2E87B
:102F600002C1914609E00FFA8CFC4FEAEC71042A89
:102F700003D14FFA8CFC4FEAEC71002907DA0A46BC
:102F80000021DCF1000C61EB02012D2202E02205A0
:102F900004D52B228DF80420012203E0E20701D0A2
:102FA0002022F7E7904653E00A2102E010220DE0CC
:102FB00010214FF0000A00910BE010224FF0000AA0
:102FC00044F004040827009203E008224FF0000AAE
:102FD0000092C4F30252022A05D059F804CB002112
:102FE000032A08D009E009F1070121F00702F2E8FD
:102FF00002C1914605E01FFA8CFC042A01D10CF0B5
:10300000FF0C4FF00008220722D5702827D0009B24
:1030100083F0100353EA0A0309D15CEA010206D0E7
:1030200030228DF804208DF8050002229046009B86
:1030300083F0080353EA0A030AD15CEA010201D1D2
:10304000620705D530228DF804204FF001087F1E5D
:10305000582809D037A003900EA8029013E0402210
:103060008DF804200122E1E737A0F4E753466046DB
:10307000009AFDF77CFA84460398825C0298A0F1DE
:103080000100029002705CEA0100EFD1029806A9EB
:10309000A1EB000000F1200A600702D524F480347F
:1030A00000E00127574502DDA7EB0A0000E0002001
:1030B00000EB0A01009005984144A0EB0100059047
:1030C000E00306D45B462146179A059800F0BBF949
:1030D0000544002706E001A85A46C05D17999047AD
:1030E0006D1C7F1C4745F6DBE0030CD55B46214693
:1030F000179A059800F0A7F9054404E030205A46D5
:10310000179990476D1C0099481E00900029F5DC26
:1031100008E0029802995A460078491C02911799D2
:1031200090476D1CBAF10001AAF1010AF1DC6BE1D4
:10313000092801003031323334353637383961628D
:103140006364656600000000303132333435363751
:1031500038394142434445460000000000F060F920
:10316000054406F10106307800287FF4E9AD19B076
:103170002846BDE8F08F620700D4062709F1070250
:1031800022F0070CFCE80223E14603F000485FEA66
:10319000080C02D00FF27C2C0DE05FEA045C02D533
:1031A0000FF2742C07E05FEAC47C02D00FF26C2CA3
:1031B00001E0AFF2700C4FF0FF3823F00043CDF880
:1031C00050C065280CD006DC452809D046281DD003
:1031D00047283ED13EE0662818D0672839D139E02B
:1031E0000021112F01DB112000E0781CCDE9000146
:1031F00006A90EA8FFF7EEFCDDE90F010E9A039178
:103200000021009207F1010A04914EE04FF00040C6
:103210000097CDE9011006A90EA8FFF7DBFCDDE958
:103220000F0203920E9B11990022DDF80CA000936F
:10323000049219B907F1010100EB010AB7EB0A008A
:1032400004D4C0F1FF3007F1010A0490AAEB070093
:10325000019046E0012F00DA01270021112F01DD46
:10326000112000E03846CDE9000106A90EA8FFF7BD
:10327000B1FCDDE90F010E9A039100210491009247
:10328000BA4621070CD40399514500DA8A46BAF1AF
:10329000010F05DD009AAAF10101515C302908D027
:1032A000B84202DA10F1040F06DA0121CDE901106B
:1032B00017E0AAF10101E9E7002805DC04990144BF
:1032C0000491AAEB000102E0411C514500DD8A4651
:1032D0000499A0EB010000F1010001904FF00040C3
:1032E0000290200704D40198504501DBCDF80480FA
:1032F00000208DF84F0002980DF14F07B0F1004FFC
:1033000025D02B200E9002984FF0020800280CDAEE
:10331000404202902D200E9007E00A210298FDF70E
:1033200010F93031029007F8011DB8F10001A8F141
:103330000108F2DC02980028EFD1791E0E9808707F
:10334000307800F0200040F0450007F8020D12A888
:10335000A0EB070000F107081498007800B10120E5
:1033600000EB0A01019801EBE07105984144A0EBE4
:103370000100A0F101000590E00306D45B46214660
:10338000179A059800F05FF805441498007820B16A
:103390005A461799904705F10105E00323D55B468E
:1033A0002146179A059800F04EF805441BE0049852
:1033B000002807DBDDE90301884203DD0098405C5B
:1033C000179901E0179930205A46904704986D1CD0
:1033D000401C04900198401E019004D12E205A46B2
:1033E000179990476D1CBAF10001AAF1010ADEDCC1
:1033F00005E017F8010B5A46179990476D1CB8F174
:103400000001A8F10108F4DC5B462146179A0598F3
:10341000A4E600002D0000002B00000020000000AA
:103420002DE9F041044600251E461746880405D4C0
:1034300006E039462020B04705F10105641EF8D5A5
:103440002846BDE8F0812DE9F041044600251E46DE
:103450009046C80301D5302700E02027880405D511
:1034600006E041463846B04705F10105641EF8D52F
:103470002846BDE8F0810A68531C0B601070704745
:1034800010B541EC100BFFF75FF851EC100B10BDBD
:1034900041EC100B82B010EE900A8DED000B20F085
:1034A000004001909DED000B02B051EC100B7047F5
:1034B00010EE100AF6EE000A074960EE200AA1EBB2
:1034C000600000EE100A20EE801AF7EE080A41EEC6
:1034D000400A20EE800A7047DF59375F2DED0C8BD4
:1034E00084B0FDF76BFB01231A464FF4E131042051
:1034F000FEF740FC01210820FEF702FAF6484FF4DF
:10350000704601210660017103214171002585711A
:10351000F24FC57101463846FDF7BAF9FEF724FBB4
:103520004FF47A70FDF7ACF9FDF794FDFDF7F4FA6E
:10353000E94C4C3CE84901233A224C39D020FDF7B4
:103540004FFC2078C007F5D060880A281FD165801D
:1035500031463846FDF7FDF9206BFCF7C3FF41EC1F
:10356000190BE06AFCF7BEFF41EC180BA06AFCF7F0
:10357000B9FF41EC100BDAA153EC102BDD488DECB8
:10358000048BFEF7FDFDDB49DB48FEF7DFFBD94886
:103590000E38FDF710FCD0480838FDF7DFF9CE49AA
:1035A000D44814310E3891ED00DAB0F9002000EE65
:1035B000102AF8EEC00A9FEDD10A10EE80DA84EDF1
:1035C00004DAB0F90220D1ED01AA00EE902AF8EE5B
:1035D000E00A50EE80AAC4ED05AA91ED02AAB0F966
:1035E000041000EE901AF8EEE00A10EE80AA84EDC6
:1035F00006AAB0F9081000EE101AB8EEC01A9FED36
:10360000C00AB549C1EE000A083191ED001A30EE4A
:10361000C19A84ED019AB0F90A2000EE902AB8EE22
:10362000E01AC1EE000A91ED011A70EEC18AC4EDF4
:10363000028AB0F90C0000EE900AF8EEE00A80EE83
:10364000801A91ED020A103901F14C0C01F12800A9
:1036500071EE400AC4ED030AB1F900309CED002A76
:1036600000EE103A90ED001AB1F90220B8EEC00A4F
:10367000DCED011AB1F90410D0ED022A30EE420A55
:1036800020EE018A00EE102A90ED011AB8EEC00A71
:1036900030EE610A00EE018A00EE101A9CED021A6B
:1036A000B8EEC00A30EE410A00EE228A00EE103A6F
:1036B000B8EEC00A84ED078A30EE420AD0ED032A44
:1036C00090ED043A60EE222A00EE102AB8EEC00A0D
:1036D00030EE610A40EE032A00EE101A90ED053A32
:1036E000B8EEC00A30EE410A40EE032A00EE103A6E
:1036F000B8EEC00AC4ED092A30EE420A90ED062A5F
:1037000060EE029A00EE102AB8EEC00A30EE610AAE
:10371000D0ED071A40EE219A00EE101AB8EEC00A5A
:1037200030EE410A90ED081A10EE900A40EE019A30
:10373000C4ED089AFCF7D6FE9FED72BB53EC1B2B31
:10374000FCF7EFFD9FED71CB53EC1C2BFCF75BFE00
:10375000FCF7DBFE0DEE900A18EE900AFCF7C2FEB5
:1037600053EC1B2BFCF7DDFD53EC1C2BFCF74BFE45
:10377000FCF7CBFE08EE900A19EE100AFCF7B2FE39
:1037800053EC1B2BFCF7CDFD53EC1C2BFCF73BFE45
:10379000FCF7BBFE00EE100AB0EE484AF0EE693AC4
:1037A000B0EE483AF0EE4A2AB0EE6A2AF0EE4D1A30
:1037B000B0EE6D1AF0EE680AFDF71AFDD4ED0EAA10
:1037C000F0EE008AB7EE008A6AEEA80AB0EE480A68
:1037D00094ED0FAA00EEEA0A6AEE280A00EECA0A81
:1037E00010EE100AFCF77EFE94ED0D0AD4ED100ADF
:1037F00041EC190B20EE2A0A0AEE200A20EE280AD4
:1038000010EE100AFCF76EFE41EC100BB0EE491AF8
:10381000F0EE691AFFF70CF89FED3EAB51EC100B80
:1038200053EC1A2BFCF77DFDFCF76FFEA06294EDC4
:103830000D0AD4ED0F0A94ED0E1A20EE200AD4EDF5
:10384000100A00EEC10A20EE280A10EE100AFCF75A
:1038500049FE41EC100BFEF7BFFC53EC1A2B51EC68
:10386000100BFCF75EFDFCF750FEE06294ED0F9A42
:10387000D4ED109A29EE280A00EE498A29EEA80A0A
:1038800000EE698A18EE100AFCF72CFE94ED0D0A82
:10389000D4ED0E0A41EC1B0B20EE290A00EE890A3A
:1038A00020EE280A10EE100AFCF71CFE41EC100B6B
:1038B000B0EE4B1AF0EE6B1AFEF7BAFF53EC1A2B70
:1038C00051EC100BFCF72DFDFCF71FFE2063608808
:1038D000401C60802EE600004C000020000C0240DE
:1038E000256620092020256620092020256620093C
:1038F0000D0A0000EE000020005000400000003AD9
:1039000033338341182D4454FB210940000000004B
:103910000080664000000020DCA54C4000B52DED85
:10392000048B83B041EC180BFCF708FF41EC190B3A
:1039300019EE100A19EE901A8DED009B002818BFA1
:103940000120084320F00040C0F17F6000F1E0401A
:10395000C00F14D018EE101A18EE900A8DED008BDF
:10396000002918BF0121084320F00040C0F17F600A
:1039700000F1E040C00F04BF0120FFF725F951EC32
:10398000190B03B0BDEC048B00BD0000000000006B
:10399000555555555555C53F7D6FEB0312D6D4BFD0
:1039A0005544880E55C1C93F3B8F68B52882A4BFD6
:1039B00088B20175E0EF493F09F7FD0DE13D023F97
:1039C0004B2D8A1C273A03C0C88A599CE52A00401F
:1039D00059018D1B6C06E6BF82922EB1C5B8B33F6C
:1039E0004FBB610567ACDD3F182D4454FB21E93F17
:1039F0009BF681D20B73EF3F182D4454FB21F93F06
:103A0000E2652F227F2B7A3C075C143326A6813C8B
:103A1000BDCBF07A8807703C075C143326A6913C36
:103A2000C4EB98999999C9BF711623FEC671BCBFA2
:103A30006D9A74AFF2B0B3BF9AFDDE522DDEADBF0A
:103A40002F6C6A2C44B4A2BF0D5555555555D53F22
:103A5000FF8300922449C23F6E204CC5CD45B73F3D
:103A6000513DD0A0660DB13FEB0D76244B7BA93FB5
:103A700011DA22E33AAD903F0000000000000000A0
:103A8000A03A000800000020E0000000A82B000879
:103A9000803B0008E000002028040000B82B00084C
:103AA0000000000000000000000000000000000016
:103AB0000000000000000000000000000000000006
:103AC00000000000000000000000000000000000F6
:103AD000000000000000803F000000000000000027
:103AE00000000000000000000000000000000000D6
:103AF0000000000054C75EBF31CDDD3F02D5313F2D
:103B0000FC00A43C09FEB7BC8E06F0BC4ACB2B3BA4
:103B1000DBB42539FCFE0838DBB425395EF7523BAF
:103B20005011F137FCFE08385011F13791242D3B2C
:103B30005828DDC2B98D25C161F41DC3992A683F9B
:103B40000AD7233B007A030A0000000000000000AF
:103B50000102030406070809000000000102030433
:103B6000010203040607080900000000000000002D
:103B70000000000000000000000000000000000045
:040000050800018965
:00000001FF
